:100000000C9462000C948A000C948A000C948A0070
:100010000C948A000C948A000C948A000C948A0038
:100020000C948A000C948A000C948A000C948A0028
:100030000C948A000C948A000C948A000C948A0018
:100040000C941C030C948A000C948C030C9466038F
:100050000C948A000C948A000C948A000C948A00F8
:100060000C948A000C948A000000000023002600F3
:10007000290000000000240027002A0000000000E2
:10008000250028002B0004040404040404040202D4
:100090000202020203030303030301020408102007
:1000A0004080010204081020010204081020000012
:1000B0000008000201000003040700000000000027
:1000C0000000BE0311241FBECFEFD8E0DEBFCDBFBE
:1000D00011E0A0E0B1E0E2EBFCE002C005900D927F
:1000E000AA3BB107D9F722E0AAEBB1E001C01D920B
:1000F000A437B207E1F710E0C2E6D0E004C02197D0
:10010000FE010E945106C136D107C9F70E94FF03C4
:100110000C9457060C940000833081F028F4813051
:1001200099F08230A9F008958730A9F08830C9F09D
:100130008430B1F4809180008F7D03C08091800075
:100140008F7780938000089584B58F7784BD08955C
:1001500084B58F7DFBCF8091B0008F778093B00006
:1001600008958091B0008F7DF9CF1F93CF93DF93D7
:10017000282F30E0F901E255FF4F8491F901E6564E
:10018000FF4FD491F901EA57FF4FC491CC23A9F056
:10019000162F81110E948C00EC2FF0E0EE0FFF1F54
:1001A000E458FF4FA591B4918FB7F894EC911111D9
:1001B00008C0D095DE23DC938FBFDF91CF911F91D4
:1001C0000895DE2BF8CFCF93DF9390E0FC01E65645
:1001D000FF4F24918A579F4FFC0184918823D1F0CF
:1001E00090E0880F991FFC01EE58FF4FA591B49144
:1001F000FC01E458FF4FC591D49161110EC09FB727
:10020000F8948C91E22FE0958E238C932881E22341
:10021000E8839FBFDF91CF9108958FB7F894EC9159
:10022000E22BEC938FBFF6CF3FB7F8948091BF01DC
:100230009091C001A091C101B091C20126B5A89BC7
:1002400005C02F3F19F00196A11DB11D3FBFBA2F68
:10025000A92F982F8827BC01CD01620F711D811D28
:10026000911D42E0660F771F881F991F4A95D1F7AD
:1002700008958F929F92AF92BF92CF92DF92EF92AA
:10028000FF924B015C010E9414016B017C010E94F2
:1002900014016C197D098E099F09683E7340810520
:1002A0009105A8F321E0821A9108A108B10888EE0F
:1002B000C80E83E0D81EE11CF11C81149104A10436
:1002C000B10429F7FF90EF90DF90CF90BF90AF90EF
:1002D0009F908F9008952FB7F8946091BB01709113
:1002E000BC018091BD019091BE012FBF0895AF92D6
:1002F000BF92CF92DF92EF92FF920F931F93CF9313
:10030000DF936C017B018B01040F151FEB015E0174
:10031000AE18BF08C017D10759F06991D601ED9109
:10032000FC910190F081E02DC6010995892B79F7A8
:10033000C501DF91CF911F910F91FF90EF90DF905A
:10034000CF90BF90AF900895FC01538D448D252F21
:1003500030E0842F90E0821B930B541710F0CF965F
:10036000089501970895FC01918D828D981761F091
:10037000A28DAE0FBF2FB11D5D968C91928D9F5FA8
:100380009F73928F90E008958FEF9FEF0895FC0187
:10039000918D828D981731F0828DE80FF11D858D3A
:1003A00090E008958FEF9FEF0895FC01918D228DCD
:1003B000892F90E0805C9F4F821B91098F73992752
:1003C000089583EC91E00E94D50121E0892B09F486
:1003D00020E0822F089580E090E0892B29F00E9490
:1003E000E10181110C9400000895FC01A48DA80F77
:1003F000B92FB11DA35ABF4F2C91848D90E0019667
:100400008F739927848FA689B7892C93A089B18986
:100410008C91837080648C93938D848D981306C027
:100420000288F389E02D80818F7D80830895EF928B
:10043000FF920F931F93CF93DF93EC0181E0888F9E
:100440009B8D8C8D98131AC0E889F989808185FF6E
:1004500015C09FB7F894EE89FF896083E889F98910
:1004600080818370806480839FBF81E090E0DF9112
:10047000CF911F910F91FF90EF900895F62E0B8D65
:1004800010E00F5F1F4F0F731127E02E8C8D8E1120
:100490000CC00FB607FCFACFE889F989808185FF87
:1004A000F5CFCE010E94F501F1CFEB8DEC0FFD2FC2
:1004B000F11DE35AFF4FF0829FB7F8940B8FEA8942
:1004C000FB8980818062CFCFCF93DF93EC01888D51
:1004D0008823B9F0AA89BB89E889F9898C9185FDBF
:1004E00003C0808186FD0DC00FB607FCF7CF8C914D
:1004F00085FFF2CF808185FFEDCFCE010E94F5010F
:10050000E9CFDF91CF910895CF93DF93D82FC8E043
:100510006D2F661F6627661F8BE00E94B500DD0FFA
:1005200061E08DE00E94B50060E08DE00E94B500C2
:10053000C15071F7DF91CF9108950F931F93CF931F
:10054000DF93082F162FD42FC22F60E08AE00E947D
:10055000B500802F0E948402812F0E9484028D2F7B
:100560000E9484028C2F0E94840261E08AE0DF9165
:10057000CF911F910F910C94B500FC0101900020C8
:10058000E9F73197AF01481B590BBC0183EC91E0AF
:100590000C9477018F929F92AF92BF920F931F930B
:1005A000CF93DF93CDB7DEB7A1970FB6F894DEBF38
:1005B0000FBECDBF19A2423008F44AE08E010F5D94
:1005C0001F4F842E912CB12CA12CA50194010E94C7
:1005D0002F06E62FB901CA01EA30F4F4E05DD80134
:1005E000EE938D01232B242B252B79F790E080E0CF
:1005F000109719F0CD010E94BD02A1960FB6F89494
:10060000DEBF0FBECDBFDF91CF911F910F91BF9085
:10061000AF909F908F900895E95CE1CFCF93DF93E7
:100620000E94BD02EC0182E191E00E94BD028C0FAC
:100630009D1FDF91CF9108951F920F920FB60F92D9
:1006400011242F933F938F939F93AF93BF938091E8
:10065000BB019091BC01A091BD01B091BE01309150
:10066000BA0123E0230F2D3758F50196A11DB11DC6
:100670002093BA018093BB019093BC01A093BD016C
:10068000B093BE018091BF019091C001A091C101C2
:10069000B091C2010196A11DB11D8093BF0190933D
:1006A000C001A093C101B093C201BF91AF919F91CE
:1006B0008F913F912F910F900FBE0F901F90189523
:1006C00026E8230F0296A11DB11DD2CF1F920F92D3
:1006D0000FB60F9211242F933F934F935F936F9315
:1006E0007F938F939F93AF93BF93EF93FF9383EC8D
:1006F00091E00E94F501FF91EF91BF91AF919F9121
:100700008F917F916F915F914F913F912F910F90BA
:100710000FBE0F901F9018951F920F920FB60F9259
:1007200011242F938F939F93EF93FF93E091D30125
:10073000F091D4018081E091D901F091DA0182FD3C
:100740001BC090818091DC018F5F8F732091DD0150
:10075000821741F0E091DC01F0E0ED53FE4F958F00
:100760008093DC01FF91EF919F918F912F910F90DA
:100770000FBE0F901F9018958081F4CFE3ECF1E04D
:100780001382128288EE93E0A0E0B0E08483958328
:10079000A683B78384E091E09183808385EC90E029
:1007A0009587848784EC90E09787868780EC90E03B
:1007B000918B808B81EC90E0938B828B82EC90E02C
:1007C000958B848B86EC90E0978B868B118E128EA6
:1007D000138E148EE0E6F2E01182128213821482EC
:1007E0001582168217821086118613861486158646
:1007F00016861786108A118A128A138A08957894A9
:1008000084B5826084BD84B5816084BD85B5826015
:1008100085BD85B5816085BD80916E0081608093C6
:100820006E0010928100809181008260809381002F
:10083000809181008160809381008091800081603F
:10084000809380008091B10084608093B10080919A
:10085000B00081608093B00080917A0084608093C2
:100860007A0080917A00826080937A0080917A0089
:10087000816080937A0080917A00806880937A000A
:100880001092C100E091D301F091D40182E0808305
:10089000E091CF01F091D0011082E091D101F0916F
:1008A000D20180E180831092DB01E091D701F091C9
:1008B000D80186E08083E091D501F091D601808156
:1008C00080618083E091D501F091D60180818860BC
:1008D0008083E091D501F091D6018081806880838A
:1008E000E091D501F091D60180818F7D808364EF06
:1008F00071E080E090E00E94390161E088E00E94B0
:10090000E30061E08DE00E94E30060E08CE00E9483
:10091000E30061E088E00E94B50060E08DE00E94A5
:10092000B50061E08BE00E94E30061E08AE00E9494
:10093000E30061E08DE00E94E30061E089E00E9455
:10094000E30061E089E00E94B50060E08DE00E9474
:10095000B50060E08AE00E94B50020E040E060E081
:1009600080E00E949D0260E089E00E94B5000E9444
:100970006B016093650270936602809367029093A7
:10098000680203E010E060E0A62E60E0B62E0E9450
:100990006B01643F71408105910508F448C10E94D4
:1009A0006B01C0906502D0906602E0906702F09003
:1009B00068029B01AC012C193D094E095F096901D0
:1009C0007A0138EBC3163BE0D306E104F10480F072
:1009D000209169022F5F233008F03BC12093690208
:1009E0006093650270936602809367029093680239
:1009F000809169024EEF442E55245A94652C752C33
:100A00008823A1F03DEF432E55245A94652C752C74
:100A1000813061F05BEF452E55245A94652C752C7E
:100A2000823021F044244A94542C32017301620133
:100A3000C094D094E094F09480916102909162020D
:100A4000A0916302B0916402C816D906EA06FB06BB
:100A500071F02C2D40E060E080E00E949D02C09289
:100A60006102D0926202E0926302F092640260E05E
:100A700088E00E94B500C8010197F1F761E088E0C5
:100A80000E94B500C8E0D0E0C12CD12C7601CC0C7E
:100A9000DD1CEE1CFF1CEAEBF0E08491E6EAF0E0DE
:100AA0002490E2E9F0E03490332081F081110E943B
:100AB0008C00E32DF0E0EE0FFF1FE859FF4FA591EA
:100AC000B4918C91282211F06894C0F861E08DE017
:100AD0000E94B50060E08DE00E94B5002197B9F654
:100AE000F42DF7704F2E2C2D2770C22EF21709F41B
:100AF000B3C08091730281110DC081E080937302B5
:100B00000E946B0160936F02709370028093710278
:100B1000909372020E946B0120916F0230917002DB
:100B20004091710250917202621B730B840B950B02
:100B3000693E73408105910508F479C00E946B01FC
:100B400020916B0230916C0240916D0250916E02C7
:100B5000621B730B840B950B693B7B4081059105F0
:100B600008F465C0CC2DC095C42185E191E00E94B8
:100B70000E0387E491E00E940E03CC2361F185E629
:100B800091E00E94BD0280E090E0DC01D0E09E0197
:100B9000082E02C0359527950A94E2F73C014D01D5
:100BA0005FEF651A750A850A950A20FF09C04AE0B9
:100BB000C401B3010E94CA0288EB91E00E94BD0209
:100BC000D401C30183309105A105B10501F78EE879
:100BD00091E00E940E0380E991E00E94BD02642D25
:100BE00070E090E080E042E00E94CA0282E191E081
:100BF0000E94BD0285EA91E00E94BD026C2D70E06A
:100C000090E080E042E00E94CA0282E191E00E940E
:100C1000BD0285E191E00E940E030E946B0160938A
:100C20006B0270936C0280936D0290936E0264E18C
:100C300070E080E090E00E943901A114B10409F451
:100C4000A6CE0E94E101882309F49DCE0E940000F7
:100C50009ACE10926902C4CE10927302E8CFA1E23C
:100C60001A2EAA1BBB1BFD010DC0AA1FBB1FEE1F26
:100C7000FF1FA217B307E407F50720F0A21BB30B71
:100C8000E40BF50B661F771F881F991F1A9469F7ED
:100C900060957095809590959B01AC01BD01CF0149
:100CA0000895EE0FFF1F0590F491E02D0994F8943C
:020CB000FFCF74
:100CB2000000000017027701A4016402D501B3010C
:100CC200C7010D0A002D2D2D2D2D2D2D2D2D2D2D54
:100CD2002D2D2D2D2D2D2D2D2D2D2D2D2D2D2D2D42
:100CE2002D2D2D2D2D2D2D2D2D2D2D2D2D2D2D2D32
:100CF2002D2D2D2D2D2D00414C4552544120444582
:100D0200204841524457415245204445544543549A
:100D1200414441210046414C4C4120454E20464130
:100D220053452028436F72746F206F20466F636FA4
:100D3200205175656D61646F293A205B20005D006A
:100D420053656E736F72657320457370657261646B
:100D52006F733A200053656E736F7265732041633F
:0A0D62007475616C65733A2020007F
:00000001FF
