:100000000C9462000C948A000C948A000C948A0070
:100010000C948A000C948A000C948A000C948A0038
:100020000C948A000C948A000C948A000C948A0028
:100030000C948A000C948A000C948A000C948A0018
:100040000C9436030C948A000C94A6030C94800341
:100050000C948A000C948A000C948A000C948A00F8
:100060000C948A000C948A000000000023002600F3
:10007000290000000000240027002A0000000000E2
:10008000250028002B0004040404040404040202D4
:100090000202020203030303030301020408102007
:1000A0004080010204081020010204081020000012
:1000B0000008000201000003040700000000000027
:1000C0000000D80311241FBECFEFD8E0DEBFCDBFA4
:1000D00023E0A0E2B2E001C01D92A030B207E1F738
:1000E00012E0A0E0B1E0ECE8F7E102C005900D926B
:1000F000A032B107D9F710E0C2E6D0E004C02197E2
:10010000FE010E942B07C136D107C9F70E942504C2
:100110000C94C40B0C940000833081F028F48130DF
:1001200099F08230A9F008958730A9F08830C9F09D
:100130008430B1F4809180008F7D03C08091800075
:100140008F7780938000089584B58F7784BD08955C
:1001500084B58F7DFBCF8091B0008F778093B00006
:1001600008958091B0008F7DF9CF1F93CF93DF93D7
:10017000282F30E0F901E255FF4F8491F901E6564E
:10018000FF4FD491F901EA57FF4FC491CC23A9F056
:10019000162F81110E948C00EC2FF0E0EE0FFF1F54
:1001A000E458FF4FA591B4918FB7F894EC911111D9
:1001B00008C0D095DE23DC938FBFDF91CF911F91D4
:1001C0000895DE2BF8CFCF93DF9390E0FC01E65645
:1001D000FF4F24918A579F4FFC0184918823D1F0CF
:1001E00090E0880F991FFC01EE58FF4FA591B49144
:1001F000FC01E458FF4FC591D49161110EC09FB727
:10020000F8948C91E22FE0958E238C932881E22341
:10021000E8839FBFDF91CF9108958FB7F894EC9159
:10022000E22BEC938FBFF6CF3FB7F89480912D026D
:1002300090912E02A0912F02B091300226B5A89B7A
:1002400005C02F3F19F00196A11DB11D3FBFBA2F68
:10025000A92F982F8827BC01CD01620F711D811D28
:10026000911D42E0660F771F881F991F4A95D1F7AD
:1002700008958F929F92AF92BF92CF92DF92EF92AA
:10028000FF924B015C010E9414016B017C010E94F2
:1002900014016C197D098E099F09683E7340810520
:1002A0009105A8F321E0821A9108A108B10888EE0F
:1002B000C80E83E0D81EE11CF11C81149104A10436
:1002C000B10429F7FF90EF90DF90CF90BF90AF90EF
:1002D0009F908F9008952FB7F894609129027091A4
:1002E0002A0280912B0290912C022FBF0895AF9289
:1002F000BF92CF92DF92EF92FF920F931F93CF9313
:10030000DF936C017B018B01040F151FEB015E0174
:10031000AE18BF08C017D10759F06991D601ED9109
:10032000FC910190F081E02DC6010995892B79F7A8
:10033000C501DF91CF911F910F91FF90EF90DF905A
:10034000CF90BF90AF900895FC01538D448D252F21
:1003500030E0842F90E0821B930B541710F0CF965F
:10036000089501970895FC01918D828D981761F091
:10037000A28DAE0FBF2FB11D5D968C91928D9F5FA8
:100380009F73928F90E008958FEF9FEF0895FC0187
:10039000918D828D981731F0828DE80FF11D858D3A
:1003A00090E008958FEF9FEF0895FC01918D228DCD
:1003B000892F90E0805C9F4F821B91098F73992752
:1003C000089581E392E00E94D50121E0892B09F490
:1003D00020E0822F089580E090E0892B29F00E9490
:1003E000E10181110C9400000895FC01A48DA80F77
:1003F000B92FB11DA35ABF4F2C91848D90E0019667
:100400008F739927848FA689B7892C93A089B18986
:100410008C91837080648C93938D848D981306C027
:100420000288F389E02D80818F7D80830895EF928B
:10043000FF920F931F93CF93DF93EC0181E0888F9E
:100440009B8D8C8D98131AC0E889F989808185FF6E
:1004500015C09FB7F894EE89FF896083E889F98910
:1004600080818370806480839FBF81E090E0DF9112
:10047000CF911F910F91FF90EF900895F62E0B8D65
:1004800010E00F5F1F4F0F731127E02E8C8D8E1120
:100490000CC00FB607FCFACFE889F989808185FF87
:1004A000F5CFCE010E94F501F1CFEB8DEC0FFD2FC2
:1004B000F11DE35AFF4FF0829FB7F8940B8FEA8942
:1004C000FB8980818062CFCFCF93DF93EC01888D51
:1004D0008823B9F0AA89BB89E889F9898C9185FDBF
:1004E00003C0808186FD0DC00FB607FCF7CF8C914D
:1004F00085FFF2CF808185FFEDCFCE010E94F5010F
:10050000E9CFDF91CF910895FC0101900020E9F738
:100510003197AF01481B590BBC0181E392E00C9469
:100520007701CF93DF930E948402EC0180E391E096
:100530000E9484028C0F9D1FDF91CF910895CF936D
:10054000DF93D82FC8E06D2F661F6627661F8BE0EC
:100550000E94B500DD0F61E08DE00E94B50060E013
:100560008DE00E94B500C15071F7DF91CF910895E1
:100570000F931F93CF93DF93082F162FD42FC22FE3
:1005800060E08AE00E94B500802F0E949F02812FC8
:100590000E949F028D2F0E949F028C2F0E949F021B
:1005A00061E08AE0DF91CF911F910F910C94B5002B
:1005B0000F931F93CF93DF93EC018881998100976C
:1005C00059F02A813B812617370730F081E0DF910F
:1005D000CF911F910F9108958B016F5F7F4F0E9404
:1005E0005608009759F0998388831B830A832C81CE
:1005F0003D81232B59F7FC011082E8CF80E0E7CF43
:10060000EF92FF920F931F93CF93DF93EC017B0147
:10061000FB0101900020E9F731978F01061B170BB2
:10062000B8010E94D80228813981811113C0211597
:10063000310519F0C9010E94CD07198218821D8267
:100640001C821B821A82DF91CF911F910F91FF9024
:10065000EF9008951D830C83B701C901DF91CF91FD
:100660001F910F91FF90EF900C941C091F920F9215
:100670000FB60F9211242F933F938F939F93AF93B5
:10068000BF938091290290912A02A0912B02B091F0
:100690002C023091280223E0230F2D3758F50196C4
:1006A000A11DB11D209328028093290290932A0254
:1006B000A0932B02B0932C0280912D0290912E02D8
:1006C000A0912F02B09130020196A11DB11D80931F
:1006D0002D0290932E02A0932F02B0933002BF916F
:1006E000AF919F918F913F912F910F900FBE0F90DF
:1006F0001F90189526E8230F0296A11DB11DD2CF99
:100700001F920F920FB60F9211242F933F934F9386
:100710005F936F937F938F939F93AF93BF93EF9369
:10072000FF9381E392E00E94F501FF91EF91BF9169
:10073000AF919F918F917F916F915F914F913F9179
:100740002F910F900FBE0F901F9018951F920F9230
:100750000FB60F9211242F938F939F93EF93FF93D4
:10076000E0914102F09142028081E0914702F091D4
:10077000480282FD1BC0908180914A028F5F8F7377
:1007800020914B02821741F0E0914A02F0E0EF5CC9
:10079000FD4F958F80934A02FF91EF919F918F912A
:1007A0002F910F900FBE0F901F9018958081F4CF5E
:1007B000E1E3F2E01382128288EE93E0A0E0B0E081
:1007C00084839583A683B78382E291E091838083BB
:1007D00085EC90E09587848784EC90E09787868706
:1007E00080EC90E0918B808B81EC90E0938B828BFE
:1007F00082EC90E0958B848B86EC90E0978B868BD7
:10080000118E128E138E148EEEECF2E01182128293
:100810001382148215821682178210861286118620
:100820008EE190E0A0E0B0E082A793A7A4A7B5A7CF
:1008300017861686148A158A118E108E168E178EBC
:1008400013A212A210A611A60895CF93DF93CDB7DD
:10085000DEB7C654D1090FB6F894DEBF0FBECDBFC8
:10086000789484B5826084BD84B5816084BD85B58B
:10087000826085BD85B5816085BD80916E00816097
:1008800080936E001092810080918100826080933D
:10089000810080918100816080938100809180003F
:1008A0008160809380008091B10084608093B1006A
:1008B0008091B00081608093B00080917A00846064
:1008C00080937A0080917A00826080937A00809190
:1008D0007A00816080937A0080917A0080688093AA
:1008E0007A001092C100E0914102F091420282E050
:1008F0008083E0913D02F0913E021082E0913F0240
:10090000F091400280E1808310924902E09145021B
:10091000F091460286E08083E0914302F091440228
:10092000808180618083E0914302F0914402808164
:1009300088608083E0914302F09144028081806866
:100940008083E0914302F091440280818F7D808317
:1009500064EF71E080E090E00E94390161E088E09E
:100960000E94E30061E08DE00E94E30060E08CE023
:100970000E94E30061E088E00E94B50060E08DE045
:100980000E94B50061E08BE00E94E30061E08AE034
:100990000E94E30061E08DE00E94E30061E089E0F5
:1009A0000E94E30061E089E00E94B50060E08DE014
:1009B0000E94B50060E08AE00E94B50020E040E0BF
:1009C00060E080E00E94B80260E089E00E94B5002B
:1009D0000E946B016093D3027093D4028093D5027E
:1009E0009093D60283E391E00E949102CE0101969A
:1009F0004C010E946B014091D7025091D8020091A6
:100A0000D3021091D4022091D5023091D6026B010D
:100A10007C01C01AD10AE20AF30AFA01EE0FFF1FA5
:100A2000EE0FFF1FEE5EFE4F0081118122813381A8
:100A3000C016D106E206F30698F09A012F5F3F4FE9
:100A40002330310508F0FAC03093D8022093D70242
:100A50006093D3027093D4028093D5029093D60210
:100A6000E091D702F091D802EE0FFF1FEE0FFF1FAB
:100A7000EA5FFE4F40805180628073808091240243
:100A800090912502A0912602B09127028415950528
:100A9000A605B705C9F18091CF029091D002A0912F
:100AA000D102B091D202481659066A067B06A1F01F
:100AB0007727672D562D452DC301AA27BB27242D47
:100AC000BC01872D0E94B8024092CF025092D00202
:100AD0006092D1027092D20240922402509225027A
:100AE00060922602709227020E946B01609320029E
:100AF0007093210280932202909323021092E202CB
:100B00001092EC021092F6020E946B0100912002FA
:100B1000109121022091220230912302601B710B5F
:100B2000820B930B683572408105910508F4A7C0CC
:100B300060E088E00E94B5008FE090E00197F1F757
:100B400061E088E00E94B5008FE090E00197F1F746
:100B500008E010E0C12CD12C760143E0A42EB12C8A
:100B6000CC0CDD1CEE1CFF1CEAEBF0E08491E6EA05
:100B7000F0E02490E2E9F0E03490332081F081113C
:100B80000E948C00E32DF0E0EE0FFF1FE859FF4FAD
:100B9000A591B4918C91282211F06894C0F861E07D
:100BA0008DE00E94B500C5010197F1F760E08DE08E
:100BB0000E94B500C5010197F1F70150110909F034
:100BC000CFCF0EEC12E0B12CA12CD301C2010A2C24
:100BD00004C0B695A795979587950A94D2F7282FC4
:100BE0002170F8012487D701C6010A2C04C0B695EC
:100BF000A795979587950A94D2F7817085872223C8
:100C000011F181114FC0F80186859785892B81F0FC
:100C100088E092E00E94840219A280E38A0D88A3F2
:100C2000CE0180960E94840283E192E00E949102AC
:100C3000F801148A17861686158A17C01092D802F2
:100C40001092D70205CF22242394312C8111DBCFBF
:100C5000F801848981112AC021E0248B0E946B0154
:100C6000F801608B718B828B938BFFEFAF1ABF0AF9
:100C7000065F1F4F23E0A216B10409F0A6CF64E17E
:100C800070E080E090E00E94390180E090E0892BE4
:100C900009F4AFCE0E94E101882309F4AACE0E9494
:100CA0000000A7CE82E0282E312CD2CF0E946B010B
:100CB000F8012089318942895389621B730B840BA7
:100CC000950B2091F8023091F9024091FA0250916F
:100CD000FB02261737074807590738F63786268656
:100CE00085898111C2CF88E691E00E9491028AE94C
:100CF00091E00E94910223961FAE1EAE2397259687
:100D00001FAE1EAE259727961FAE1EAE279770E02A
:100D100060E0CE018F5B9F4F0E94D80223962EADDC
:100D20003FAD2397811135C02115310519F0C90157
:100D30000E94CD0723961FAE1EAE239727961FAEA7
:100D40001EAE279725961FAE1EAE25978A2D62EB05
:100D500071E0AA2031F06FEB71E0813011F468EBA3
:100D600071E0CE018F5B9F4F0E94000322968FADF2
:100D7000229723969FAD23972A942328A1F09F932F
:100D80008F931F9291E09F93EEEEF1E0FF93EF932C
:100D900013C027961FAE1EAE279762E371E0C9010C
:100DA0000E941C09D3CF9F938F931F92F1E0FF9372
:100DB00083EC91E09F938F939F928F920E942309DF
:100DC000C4010E9491020FB6F894DEBF0FBECDBFE2
:100DD00023968EAD9FAD2397009711F00E94CD070B
:100DE00021E0F801258B41CF2F923F924F925F92E5
:100DF0006F927F928F929F92AF92BF92CF92DF922B
:100E0000EF92FF920F931F93CF93DF93CDB7DEB78F
:100E1000CA1BDB0B0FB6F894DEBF0FBECDBF099423
:100E20002A88398848885F846E847D848C849B847A
:100E3000AA84B984C884DF80EE80FD800C811B8188
:100E4000AA81B981CE0FD11D0FB6F894DEBF0FBEB7
:100E5000CDBFED010895EE0FFF1F0590F491E02D39
:100E600009940F931F93CF93DF938230910510F471
:100E700082E090E0E091FE02F091FF0230E020E09D
:100E8000B0E0A0E0309799F42115310509F44AC08B
:100E9000281B390B24303105D8F58A819B816115D7
:100EA000710589F1FB0193838283FE0111C04081AA
:100EB00051810281138148175907E0F048175907FB
:100EC00099F4109761F012960C93129713961C9355
:100ED0003296CF01DF91CF911F910F91089500932A
:100EE000FE021093FF02F4CF2115310551F0421795
:100EF000530738F0A901DB019A01BD01DF01F801B8
:100F0000C1CFEF01F9CF9093FF028093FE02CDCFC6
:100F1000FE01E20FF31F819391932250310939832F
:100F20002883D7CF2091FC023091FD02232B41F47E
:100F300020910201309103013093FD022093FC02C5
:100F400020910001309101012115310541F42DB7A7
:100F50003EB74091040150910501241B350BE091EF
:100F6000FC02F091FD02E217F307A0F42E1B3F0BE9
:100F70002817390778F0AC014E5F5F4F241735070B
:100F800048F04E0F5F1F5093FD024093FC02819387
:100F900091939FCFF0E0E0E09CCFCF93DF93009759
:100FA000E9F0FC01329713821282A091FE02B09107
:100FB000FF02ED0130E020E01097A1F420813181A3
:100FC000820F931F2091FC023091FD0228173907F0
:100FD00009F061C0F093FD02E093FC02DF91CF9134
:100FE0000895EA01CE17DF07E8F54A815B819E018B
:100FF00041155105B1F7E901FB83EA834991599104
:10100000C40FD51FEC17FD0761F480819181029612
:10101000840F951FE90199838883828193819B8343
:101020008A83F0E0E0E012968D919C9113970097EF
:10103000B9F52D913C911197CD010296820F931F26
:101040002091FC023091FD022817390739F63097BC
:1010500051F51092FF021092FE02B093FD02A09390
:10106000FC02BCCFD383C28340815181840F951F82
:10107000C817D90761F44E5F5F4F88819981480F87
:10108000591F518340838A819B81938382832115D9
:10109000310509F0B0CFF093FF02E093FE029ECF3E
:1010A000FD01DC01C0CF13821282D7CFB0E0A0E0F7
:1010B000ECE5F8E00C94F6068C01009751F4CB01B6
:1010C0000E9431078C01C801CDB7DEB7E0E10C9476
:1010D0001207FC01E60FF71F9C0122503109E217AD
:1010E000F30708F49DC0D901CD91DC911197C61783
:1010F000D70798F0C530D10530F3CE010497861795
:10110000970708F3C61BD70B2297C193D1936D9312
:101110007C93CF010E94CD07D6CF5B01AC1ABD0AEC
:101120004C018C0E9D1EA091FE02B091FF02512C2D
:10113000412CF12CE12C109731F58091FC0290911B
:10114000FD028815990509F05CC04616570608F09F
:1011500058C08091000190910101009741F48DB732
:101160009EB74091040150910501841B950BE8172F
:10117000F90708F055C0F093FD02E093FC02F90175
:1011800071836083A0CF8D919C91119712966C9082
:10119000129713967C901397A815B90559F56C0111
:1011A00042E0C40ED11CCA14DB0420F1AC014A1980
:1011B0005B09DA011296159780F06282738251837F
:1011C0004083D9016D937C93E114F10471F0D70150
:1011D0001396FC93EE93129776CF22968C0F9D1F59
:1011E000F90191838083F301EFCFF093FF02E09345
:1011F000FE0269CF4816590608F42C017D01D3017F
:101200009ACFCB010E9431077C01009749F0AE01D3
:10121000B8010E941309C8010E94CD07870153CF6E
:1012200010E000E050CFFB01DC0102C001900D9204
:1012300041505040D8F70895FB01DC0101900D9218
:101240000020E1F70895AEE0B0E0E9E2F9E00C94A7
:1012500002070D891E8986E08C831A8309838FEF2C
:101260009FE79E838D83AE01475E5F4F6F89788DC8
:10127000CE0101960E9446092F813885020F131F67
:10128000F80110822E96E4E00C941E07ABE0B0E06B
:10129000ECE4F9E00C94F4067C013B018A01FC01CA
:1012A00017821682838181FFC8C1CE0101965C013D
:1012B000F7019381F30193FD859193FF81913F01A4
:1012C000882309F453C1853239F493FD859193FF46
:1012D00081913F01853229F4B70190E00E94360BDD
:1012E000E7CF912C212C312CFFE1F31538F08B3214
:1012F00011F190F4803209F1833229F137FC3CC0BE
:1013000020ED280F2A3050F536FE20C08AE0989E46
:10131000200D1124922E06C08D3291F0803371F78A
:10132000689430F8F30193FD859193FF81913F011B
:101330008111DACF21C0689431F8689432F8F2CF85
:10134000689433F8EFCF689434F8ECCFEAE02E9E3F
:10135000200D1124222E689435F8E4CF8E3229F422
:1013600036FC04C1689436F8DDCF8C3619F46894E5
:1013700037F8D8CF8836B1F2982F9F7D95549330A7
:10138000E0F08336A1F18337C1F1833509F063C002
:101390002801F2E04F0E511CF801C080D180692D68
:1013A00070E036FC02C06FEF7FEFC6010E94200B99
:1013B0004C01689437F882010AC00C5F1F4FFFE3AD
:1013C000F98388248394912C6501E89437F833FEDF
:1013D0002DC0522C8114910471F5552009F468CF69
:1013E000B70180E290E00E94360B5A94F6CFF801E4
:1013F000808189830E5F1F4FE4CF2801F2E04F0EFA
:10140000511CF801C080D180692D70E036FC02C00B
:101410006FEF7FEFC6010E942B0B4C018201D5CFED
:10142000B70180E290E00E94360B2A942814190438
:1014300009F0B0F7CECFF60137FC859137FE8191E8
:101440006F01B70190E00E94360B51105A94F1E001
:101450008F1A9108BFCF843619F0893609F077C00A
:10146000F80137FE6BC060817181828193810C5FCE
:101470001F4FF32DFF763F2E97FF09C09095809563
:10148000709561957F4F8F4F9F4F689437F82AE092
:1014900030E0A5010E94660BC82ECA188C2C432C84
:1014A00036FE0CC0E89440F8C91440F434FE05C080
:1014B00032FC03C0F32DFE7E4F2E892C44FE95C0D6
:1014C000FE01EC0DF11D8081803309F087C0242DD1
:1014D000297E422E842D8870582E43FC95C040FEF4
:1014E0008FC09C2C821418F42C0C922C981844FE5B
:1014F00091C0B70180E390E00E94360B42FE09C024
:1015000088E790E041FE02C088E590E0B7010E94C4
:10151000360BC91408F48AC0CA94D12C9FEFC91A9B
:10152000D90ACA0CDB1CF60182916F01B70190E069
:101530000E94360BAC14BD04B1F74FCF60817181AE
:10154000072E000C880B990B0E5F1F4F92CFD32CE8
:10155000E894D4F82AE030E0853739F1232D297F4B
:10156000D22E8F3601F148F48835A9F0F701868133
:1015700097812B96E2E10C941007803749F0883769
:10158000A9F7D4FE02C06894D2F820E130E00DC083
:101590006894D4F8F6CF34FE03C0822F8660D82E2C
:1015A00020E132E002C028E030E0F801D7FE0FC0B1
:1015B00060817181828193810C5F1F4FA5010E9420
:1015C000660BC82ECA183D2CE89437F867CF6081A7
:1015D000718190E080E00E5F1F4FF0CF42FC02C0AF
:1015E000839478CF8394839475CF842D867809F47F
:1015F00071CFF6CFB70180E290E00E94360B839462
:101600008214C0F3512C73CF522C5818821408F452
:101610006ECFF8CF842D867809F47BCF8BE241FE24
:1016200080E247FC8DE2B70190E071CFB70180E323
:1016300090E00E94360B9A946CCF8FEF9FEF99CF7A
:10164000FC010590615070400110D8F7809590958D
:101650008E0F9F1F0895FC01615070400190011092
:10166000D8F7809590958E0F9F1F08950F931F9325
:10167000CF93DF93182F092FEB018B8181FD09C0D8
:101680001FEF0FEF812F902FDF91CF911F910F91BF
:10169000089582FF14C02E813F818C819D8128177F
:1016A00039073CF4E881F981CF0101969983888359
:1016B00010838E819F8101969F838E83E3CFE8857F
:1016C000F985812F0995892BA1F3DACFFA01AA2791
:1016D000283051F1203181F1E8946F936E7F6E5F75
:1016E0007F4F8F4F9F4FAF4FB1E03ED0B4E03CD023
:1016F000670F781F891F9A1FA11D680F791F8A1F06
:10170000911DA11D6A0F711D811D911DA11D20D06C
:1017100009F468943F912AE0269F11243019305D26
:101720003193DEF6CF010895462F4770405D419317
:10173000B3E00FD0C9F7F6CF462F4F70405D4A3364
:1017400018F0495D31FD4052419302D0A9F7EACF2C
:10175000B4E0A6959795879577956795BA95C9F75B
:1017600000976105710508959B01AC010A2E06944E
:101770005795479537952795BA95C9F7620F731F07
:0C178000841F951FA01D0895F894FFCF52
:10178C0000000003800001000000020000000400C3
:10179C000000B80B0000E8030000B80B00000000CC
:1017AC00000017027701A4016402D501B301C7013F
:1017BC000D0A0053797374656D20496E6974696103
:1017CC006C697A65642E205374617274696E67203B
:1017DC006861726477617265207375706572766981
:1017EC0073696F6E2E2E2E003D3D3D3D3D3D3D3DC2
:1017FC003D3D3D3D3D3D3D3D3D3D3D3D3D3D3D3D0D
:10180C003D3D3D3D3D3D3D3D3D3D3D3D3D3D3D3DFC
:10181C003D3D3D3D3D3D3D3D3D00484152445741E0
:10182C005245204641554C5420444554454354455B
:10183C004400477265656E0059656C6C6F77005299
:10184C006564004255524E542042554C42204F5232
:10185C002053484F525445442054524941433A2056
:10186C005068617365202564205B25735D004F50C3
:10187C00454E2054524941433A20506861736520CB
:10188C002564205B25735D00506861736520626977
:10189C00742000205245434F56455245442E0000BB
:00000001FF
