:100000000C9462000C948A000C948A000C948A0070
:100010000C948A000C948A000C948A000C948A0038
:100020000C948A000C948A000C948A000C948A0028
:100030000C948A000C948A000C948A000C948A0018
:100040000C942A030C948A000C949A030C94740365
:100050000C948A000C948A000C948A000C948A00F8
:100060000C948A000C948A000000000023002600F3
:10007000290000000000240027002A0000000000E2
:10008000250028002B0004040404040404040202D4
:100090000202020203030303030301020408102007
:1000A0004080010204081020010204081020000012
:1000B0000008000201000003040700000000000027
:1000C0000000CC0311241FBECFEFD8E0DEBFCDBFB0
:1000D00022E0A0E2B2E001C01D92A83FB207E1F722
:1000E00012E0A0E0B1E0E4E4F7E102C005900D9277
:1000F000A032B107D9F710E0C2E6D0E004C02197E2
:10010000FE010E940707C136D107C9F70E941904F2
:100110000C94A00B0C940000833081F028F4813003
:1001200099F08230A9F008958730A9F08830C9F09D
:100130008430B1F4809180008F7D03C08091800075
:100140008F7780938000089584B58F7784BD08955C
:1001500084B58F7DFBCF8091B0008F778093B00006
:1001600008958091B0008F7DF9CF1F93CF93DF93D7
:10017000282F30E0F901E255FF4F8491F901E6564E
:10018000FF4FD491F901EA57FF4FC491CC23A9F056
:10019000162F81110E948C00EC2FF0E0EE0FFF1F54
:1001A000E458FF4FA591B4918FB7F894EC911111D9
:1001B00008C0D095DE23DC938FBFDF91CF911F91D4
:1001C0000895DE2BF8CFCF93DF9390E0FC01E65645
:1001D000FF4F24918A579F4FFC0184918823D1F0CF
:1001E00090E0880F991FFC01EE58FF4FA591B49144
:1001F000FC01E458FF4FC591D49161110EC09FB727
:10020000F8948C91E22FE0958E238C932881E22341
:10021000E8839FBFDF91CF9108958FB7F894EC9159
:10022000E22BEC938FBFF6CF3FB7F8948091250275
:1002300090912602A0912702B091280226B5A89B92
:1002400005C02F3F19F00196A11DB11D3FBFBA2F68
:10025000A92F982F8827BC01CD01620F711D811D28
:10026000911D42E0660F771F881F991F4A95D1F7AD
:1002700008958F929F92AF92BF92CF92DF92EF92AA
:10028000FF924B015C010E9414016B017C010E94F2
:1002900014016C197D098E099F09683E7340810520
:1002A0009105A8F321E0821A9108A108B10888EE0F
:1002B000C80E83E0D81EE11CF11C81149104A10436
:1002C000B10429F7FF90EF90DF90CF90BF90AF90EF
:1002D0009F908F900895AF92BF92CF92DF92EF924E
:1002E000FF920F931F93CF93DF936C017B018B01E0
:1002F000040F151FEB015E01AE18BF08C017D10730
:1003000059F06991D601ED91FC910190F081E02DB9
:10031000C6010995892B79F7C501DF91CF911F910E
:100320000F91FF90EF90DF90CF90BF90AF90089526
:10033000FC01538D448D252F30E0842F90E0821BEB
:10034000930B541710F0CF96089501970895FC0170
:10035000918D828D981761F0A28DAE0FBF2FB11DC8
:100360005D968C91928D9F5F9F73928F90E0089520
:100370008FEF9FEF0895FC01918D828D981731F0DA
:10038000828DE80FF11D858D90E008958FEF9FEF2E
:100390000895FC01918D228D892F90E0805C9F4F04
:1003A000821B91098F739927089589E292E00E9438
:1003B000C90121E0892B09F420E0822F089580E013
:1003C00090E0892B29F00E94D50181110C94000046
:1003D0000895FC01A48DA80FB92FB11DA35ABF4FDA
:1003E0002C91848D90E001968F739927848FA68934
:1003F000B7892C93A089B1898C91837080648C9388
:10040000938D848D981306C00288F389E02D808136
:100410008F7D80830895EF92FF920F931F93CF9368
:10042000DF93EC0181E0888F9B8D8C8D98131AC02F
:10043000E889F989808185FF15C09FB7F894EE8916
:10044000FF896083E889F989808183708064808373
:100450009FBF81E090E0DF91CF911F910F91FF90BE
:10046000EF900895F62E0B8D10E00F5F1F4F0F7366
:100470001127E02E8C8D8E110CC00FB607FCFACF21
:10048000E889F989808185FFF5CFCE010E94E901D5
:10049000F1CFEB8DEC0FFD2FF11DE35AFF4FF082F2
:1004A0009FB7F8940B8FEA89FB8980818062CFCF58
:1004B000CF93DF93EC01888D8823B9F0AA89BB899B
:1004C000E889F9898C9185FD03C0808186FD0DC086
:1004D0000FB607FCF7CF8C9185FFF2CF808185FFA7
:1004E000EDCFCE010E94E901E9CFDF91CF910895D0
:1004F000FC0101900020E9F73197AF01481B590B2F
:10050000BC0189E292E00C946B01CF93DF930E94CF
:100510007802EC0180E391E00E9478028C0F9D1F2D
:10052000DF91CF910895CF93DF93D82FC8E06D2F3F
:10053000661F6627661F8BE00E94B500DD0F61E035
:100540008DE00E94B50060E08DE00E94B500C150D2
:1005500071F7DF91CF9108950F931F93CF93DF939E
:10056000082F162FD42FC22F60E08AE00E94B5001A
:10057000802F0E949302812F0E9493028D2F0E9450
:1005800093028C2F0E94930261E08AE0DF91CF9169
:100590001F910F910C94B5000F931F93CF93DF938E
:1005A000EC0188819981009759F02A813B812617B7
:1005B000370730F081E0DF91CF911F910F910895BF
:1005C0008B016F5F7F4F0E943208009759F099832B
:1005D00088831B830A832C813D81232B59F7FC01DF
:1005E0001082E8CF80E0E7CFEF92FF920F931F9346
:1005F000CF93DF93EC017B01FB0101900020E9F731
:1006000031978F01061B170BB8010E94CC0228817D
:100610003981811113C02115310519F0C9010E94DA
:10062000A907198218821D821C821B821A82DF91FF
:10063000CF911F910F91FF90EF9008951D830C8330
:10064000B701C901DF91CF911F910F91FF90EF90FA
:100650000C94F8081F920F920FB60F9211242F934B
:100660003F938F939F93AF93BF938091210290917B
:100670002202A0912302B09124023091200223E0B3
:10068000230F2D3758F50196A11DB11D209320028F
:100690008093210290932202A0932302B09324021C
:1006A0008091250290912602A0912702B091280204
:1006B0000196A11DB11D8093250290932602A0935F
:1006C0002702B0932802BF91AF919F918F913F91E4
:1006D0002F910F900FBE0F901F90189526E8230FB3
:1006E0000296A11DB11DD2CF1F920F920FB60F928D
:1006F00011242F933F934F935F936F937F938F9327
:100700009F93AF93BF93EF93FF9389E292E00E9490
:10071000E901FF91EF91BF91AF919F918F917F91EF
:100720006F915F914F913F912F910F900FBE0F905E
:100730001F9018951F920F920FB60F9211242F93AE
:100740008F939F93EF93FF93E0913902F0913A02D8
:100750008081E0913F02F091400282FD1BC09081B8
:10076000809142028F5F8F7320914302821741F084
:10077000E0914202F0E0E75DFD4F958F80934202E9
:10078000FF91EF919F918F912F910F900FBE0F903E
:100790001F9018958081F4CFE9E2F2E01382128273
:1007A00088EE93E0A0E0B0E084839583A683B783CE
:1007B00082E291E09183808385EC90E09587848745
:1007C00084EC90E09787868780EC90E0918B808B1B
:1007D00081EC90E0938B828B82EC90E0958B848B04
:1007E00086EC90E0978B868B118E128E138E148E72
:1007F000E6ECF2E0118212821382148215821682D4
:10080000178210861286118680E991E0A0E0B0E0A0
:1008100082A793A7A4A7B5A717861686148A158A58
:10082000118E108E168E178E13A212A210A611A66C
:100830000895CF93DF93CDB7DEB7C654D1090FB675
:10084000F894DEBF0FBECDBF789484B5826084BDBE
:1008500084B5816084BD85B5826085BD85B58160C4
:1008600085BD80916E00816080936E001092810042
:1008700080918100826080938100809181008160FD
:1008800080938100809180008160809380008091BE
:10089000B10084608093B1008091B000816080934A
:1008A000B00080917A00846080937A0080917A0011
:1008B000826080937A0080917A00816080937A00D0
:1008C00080917A00806880937A001092C100E09154
:1008D0003902F0913A0282E08083E0913502F09192
:1008E00036021082E0913702F091380280E1808375
:1008F00010924102E0913D02F0913E0286E0808339
:10090000E0913B02F0913C02808180618083E09124
:100910003B02F0913C02808188608083E0913B0241
:10092000F0913C02808180688083E0913B02F091ED
:100930003C0280818F7D808364EF71E080E090E0F5
:100940000E94390161E088E00E94E30061E08DE0EF
:100950000E94E30060E08CE00E94E30061E088E038
:100960000E94B50060E08DE00E94B50061E08BE080
:100970000E94E30061E08AE00E94E30061E08DE014
:100980000E94E30061E089E00E94E30061E089E009
:100990000E94B50060E08DE00E94B50060E08AE052
:1009A0000E94B50020E040E060E080E00E94AC02E0
:1009B00060E089E00E94B5002FB7F8948091210291
:1009C00090912202A0912302B09124022FBF809324
:1009D000CB029093CC02A093CD02B093CE0283E3DE
:1009E00091E00E948502CE0101964C018FB7F894E8
:1009F00040912102509122026091230270912402C1
:100A00008FBF8091CF029091D0020091CB021091C4
:100A1000CC022091CD023091CE026A017B01C01A36
:100A2000D10AE20AF30AFC01EE0FFF1FEE0FFF1FCF
:100A3000EE5EFE4F0081118122813381C016D10606
:100A4000E206F30688F001968330910508F0C1C0F4
:100A50009093D0028093CF024093CB025093CC026C
:100A60006093CD027093CE02E091CF02F091D0025C
:100A7000EE0FFF1FEE0FFF1FEA5FFE4F4080518019
:100A8000628073808091C7029091C802A091C902D0
:100A9000B091CA0284159505A605B705A1F0772780
:100AA000672D562D452DC301AA27BB27242DBC0138
:100AB000872D0E94AC024092C7025092C8026092F9
:100AC000C9027092CA0260E088E00E94B5008FE01F
:100AD00090E00197F1F761E088E00E94B5008FE0B7
:100AE00090E00197F1F708E010E0C12CD12C7601DD
:100AF00043E0A42EB12CCC0CDD1CEE1CFF1CEAEB59
:100B0000F0E08491E6EAF0E02490E2E9F0E034904D
:100B1000332081F081110E948C00E32DF0E0EE0F74
:100B2000FF1FE859FF4FA591B4918C91282211F035
:100B30006894C0F861E08DE00E94B500C50101979E
:100B4000F1F760E08DE00E94B500C5010197F1F773
:100B50000150110909F0CFCF06EC12E0B12CA12C05
:100B6000D301C2010A2C04C0B695A7959795879525
:100B70000A94D2F7282F2170F8012487D701C601E3
:100B80000A2C04C0B695A795979587950A94D2F735
:100B900081708587222311F1811157C0F801868564
:100BA0009785892B81F088E092E00E94780219A253
:100BB00080E38A0D88A3CE0180960E94780283E1AB
:100BC00092E00E948502F801148A17861686158A1B
:100BD0001FC01092D0021092CF023ECF2224239445
:100BE000312C8111DBCFF8018489811132C021E0E1
:100BF000248B2FB7F8948091210290912202A0912A
:100C00002302B09124022FBF808B918BA28BB38BD8
:100C1000FFEFAF1ABF0A065F1F4F23E0A216B10411
:100C200009F09ECF68E572E080E090E00E94390113
:100C300080E090E0892B09F4D9CE0E94D501882369
:100C400009F4D4CE0E940000D1CE82E0282E312CAF
:100C5000CACF2FB7F8948091210290912202A091DF
:100C60002302B09124022FBF408951896289738980
:100C7000841B950BA60BB70B4091F0025091F1022B
:100C80006091F2027091F302481759076A077B07D7
:100C900008F0BECF3786268685898111B9CF88E6D0
:100CA00091E00E9485028AE991E00E9485022396E4
:100CB0001FAE1EAE239725961FAE1EAE2597279614
:100CC0001FAE1EAE279770E060E0CE018F5B9F4F96
:100CD0000E94CC0223962EAD3FAD2397811135C0E3
:100CE0002115310519F0C9010E94A90723961FAEED
:100CF0001EAE239727961FAE1EAE279725961FAED2
:100D00001EAE25978A2D62EB71E0AA2031F06FEBC1
:100D100071E0813011F468EB71E0CE018F5B9F4F81
:100D20000E94F40222968FAD229723969FAD2397BF
:100D30002A942328A1F09F938F931F9291E09F9371
:100D4000EEEEF1E0FF93EF9313C027961FAE1EAEB9
:100D5000279762E371E0C9010E94F808D3CF9F93FF
:100D60008F931F92F1E0FF9383EC91E09F938F9319
:100D70009F928F920E94FF08C4010E9485020FB6C5
:100D8000F894DEBF0FBECDBF23968EAD9FAD2397E7
:100D9000009711F00E94A90721E0F801258B38CFB8
:100DA0002F923F924F925F926F927F928F929F927B
:100DB000AF92BF92CF92DF92EF92FF920F931F9369
:100DC000CF93DF93CDB7DEB7CA1BDB0B0FB6F8941A
:100DD000DEBF0FBECDBF09942A88398848885F845A
:100DE0006E847D848C849B84AA84B984C884DF80CB
:100DF000EE80FD800C811B81AA81B981CE0FD11DAF
:100E00000FB6F894DEBF0FBECDBFED010895EE0F13
:100E1000FF1F0590F491E02D09940F931F93CF933A
:100E2000DF938230910510F482E090E0E091F602C9
:100E3000F091F70230E020E0B0E0A0E0309799F4C4
:100E40002115310509F44AC0281B390B243031051E
:100E5000D8F58A819B816115710589F1FB01938326
:100E60008283FE0111C040815181028113814817A4
:100E70005907E0F04817590799F4109761F0129656
:100E80000C93129713961C933296CF01DF91CF915A
:100E90001F910F9108950093F6021093F702F4CF7B
:100EA0002115310551F04217530738F0A901DB0134
:100EB0009A01BD01DF01F801C1CFEF01F9CF909395
:100EC000F7028093F602CDCFFE01E20FF31F81936C
:100ED00091932250310939832883D7CF2091F4028E
:100EE0003091F502232B41F420910201309103014E
:100EF0003093F5022093F40220910001309101011A
:100F00002115310541F42DB73EB7409104015091B0
:100F10000501241B350BE091F402F091F502E21774
:100F2000F307A0F42E1B3F0B2817390778F0AC010C
:100F30004E5F5F4F2417350748F04E0F5F1F5093E9
:100F4000F5024093F402819391939FCFF0E0E0E0AB
:100F50009CCFCF93DF930097E9F0FC013297138287
:100F60001282A091F602B091F702ED0130E020E08C
:100F70001097A1F420813181820F931F2091F402F8
:100F80003091F5022817390709F061C0F093F50296
:100F9000E093F402DF91CF910895EA01CE17DF07C5
:100FA000E8F54A815B819E0141155105B1F7E901E0
:100FB000FB83EA8349915991C40FD51FEC17FD07B4
:100FC00061F4808191810296840F951FE9019983D4
:100FD0008883828193819B838A83F0E0E0E012968C
:100FE0008D919C9113970097B9F52D913C91119794
:100FF000CD010296820F931F2091F4023091F502E9
:101000002817390739F6309751F51092F7021092E8
:10101000F602B093F502A093F402BCCFD383C2834F
:1010200040815181840F951FC817D90761F44E5F25
:101030005F4F88819981480F591F518340838A816E
:101040009B81938382832115310509F0B0CFF09302
:10105000F702E093F6029ECFFD01DC01C0CF1382C0
:101060001282D7CFB0E0A0E0E8E3F8E00C94D2061B
:101070008C01009751F4CB010E940D078C01C8012F
:10108000CDB7DEB7E0E10C94EE06FC01E60FF71FEA
:101090009C0122503109E217F30708F49DC0D901E1
:1010A000CD91DC911197C617D70798F0C530D105BF
:1010B00030F3CE0104978617970708F3C61BD70BAA
:1010C0002297C193D1936D937C93CF010E94A9077E
:1010D000D6CF5B01AC1ABD0A4C018C0E9D1EA091AF
:1010E000F602B091F702512C412CF12CE12C109713
:1010F00031F58091F4029091F5028815990509F077
:101100005CC04616570608F058C0809100019091C7
:101110000101009741F48DB79EB7409104015091B1
:101120000501841B950BE817F90708F055C0F093EB
:10113000F502E093F402F90171836083A0CF8D91F1
:101140009C91119712966C90129713967C9013971E
:10115000A815B90559F56C0142E0C40ED11CCA149A
:10116000DB0420F1AC014A195B09DA0112961597EC
:1011700080F06282738251834083D9016D937C93A6
:10118000E114F10471F0D7011396FC93EE931297DA
:1011900076CF22968C0F9D1FF90191838083F301F6
:1011A000EFCFF093F702E093F60269CF48165906A5
:1011B00008F42C017D01D3019ACFCB010E940D07C9
:1011C0007C01009749F0AE01B8010E94EF08C80108
:1011D0000E94A907870153CF10E000E050CFFB0128
:1011E000DC0102C001900D9241505040D8F70895A3
:1011F000FB01DC0101900D920020E1F70895AEE0C3
:10120000B0E0E5E0F9E00C94DE060D891E8986E089
:101210008C831A8309838FEF9FE79E838D83AE01B2
:10122000475E5F4F6F89788DCE0101960E9422093B
:101230002F813885020F131FF80110822E96E4E0EB
:101240000C94FA06ABE0B0E0E8E2F9E00C94D006CA
:101250007C013B018A01FC0117821682838181FF98
:10126000C8C1CE0101965C01F7019381F30193FDA2
:10127000859193FF81913F01882309F453C1853201
:1012800039F493FD859193FF81913F01853229F4D3
:10129000B70190E00E94120BE7CF912C212C312C4A
:1012A000FFE1F31538F08B3211F190F4803209F13F
:1012B000833229F137FC3CC020ED280F2A3050F54D
:1012C00036FE20C08AE0989E200D1124922E06C082
:1012D0008D3291F0803371F7689430F8F30193FD0B
:1012E000859193FF81913F018111DACF21C06894EC
:1012F00031F8689432F8F2CF689433F8EFCF6894FD
:1013000034F8ECCFEAE02E9E200D1124222E6894B2
:1013100035F8E4CF8E3229F436FC04C1689436F8EF
:10132000DDCF8C3619F4689437F8D8CF8836B1F20F
:10133000982F9F7D95549330E0F08336A1F1833749
:10134000C1F1833509F063C02801F2E04F0E511C52
:10135000F801C080D180692D70E036FC02C06FEFCB
:101360007FEFC6010E94FC0A4C01689437F88201A5
:101370000AC00C5F1F4FFFE3F98388248394912CEC
:101380006501E89437F833FE2DC0522C8114910486
:1013900071F5552009F468CFB70180E290E00E9412
:1013A000120B5A94F6CFF801808189830E5F1F4F8C
:1013B000E4CF2801F2E04F0E511CF801C080D1802B
:1013C000692D70E036FC02C06FEF7FEFC6010E940E
:1013D000070B4C018201D5CFB70180E290E00E945B
:1013E000120B2A942814190409F0B0F7CECFF60195
:1013F00037FC859137FE81916F01B70190E00E9423
:10140000120B51105A94F1E08F1A9108BFCF843615
:1014100019F0893609F077C0F80137FE6BC060819A
:101420007181828193810C5F1F4FF32DFF763F2ED8
:1014300097FF09C090958095709561957F4F8F4F6C
:101440009F4F689437F82AE030E0A5010E94420BD4
:10145000C82ECA188C2C432C36FE0CC0E89440F8D9
:10146000C91440F434FE05C032FC03C0F32DFE7EE7
:101470004F2E892C44FE95C0FE01EC0DF11D80819C
:10148000803309F087C0242D297E422E842D887058
:10149000582E43FC95C040FE8FC09C2C821418F43B
:1014A0002C0C922C981844FE91C0B70180E390E078
:1014B0000E94120B42FE09C088E790E041FE02C084
:1014C00088E590E0B7010E94120BC91408F48AC0A5
:1014D000CA94D12C9FEFC91AD90ACA0CDB1CF60199
:1014E00082916F01B70190E00E94120BAC14BD0411
:1014F000B1F74FCF60817181072E000C880B990BDB
:101500000E5F1F4F92CFD32CE894D4F82AE030E03E
:10151000853739F1232D297FD22E8F3601F148F4FA
:101520008835A9F0F701868197812B96E2E10C942A
:10153000EC06803749F08837A9F7D4FE02C06894DA
:10154000D2F820E130E00DC06894D4F8F6CF34FE34
:1015500003C0822F8660D82E20E132E002C028E04E
:1015600030E0F801D7FE0FC06081718182819381E4
:101570000C5F1F4FA5010E94420BC82ECA183D2CBC
:10158000E89437F867CF6081718190E080E00E5F6A
:101590001F4FF0CF42FC02C0839478CF8394839492
:1015A00075CF842D867809F471CFF6CFB70180E22C
:1015B00090E00E94120B83948214C0F3512C73CFDD
:1015C000522C5818821408F46ECFF8CF842D8678E8
:1015D00009F47BCF8BE241FE80E247FC8DE2B7014C
:1015E00090E071CFB70180E390E00E94120B9A94D3
:1015F0006CCF8FEF9FEF99CFFC0105906150704049
:101600000110D8F7809590958E0F9F1F0895FC01CB
:101610006150704001900110D8F7809590958E0F21
:101620009F1F08950F931F93CF93DF93182F092FB8
:10163000EB018B8181FD09C01FEF0FEF812F902FF0
:10164000DF91CF911F910F91089582FF14C02E81D9
:101650003F818C819D81281739073CF4E881F9810D
:10166000CF0101969983888310838E819F81019693
:101670009F838E83E3CFE885F985812F0995892B98
:10168000A1F3DACFFA01AA27283051F1203181F1F4
:10169000E8946F936E7F6E5F7F4F8F4F9F4FAF4F7A
:1016A000B1E03ED0B4E03CD0670F781F891F9A1F8D
:1016B000A11D680F791F8A1F911DA11D6A0F711D41
:1016C000811D911DA11D20D009F468943F912AE04D
:1016D000269F11243019305D3193DEF6CF01089535
:1016E000462F4770405D4193B3E00FD0C9F7F6CF66
:1016F000462F4F70405D4A3318F0495D31FD40522E
:10170000419302D0A9F7EACFB4E0A69597958795C3
:1017100077956795BA95C9F70097610571050895A2
:101720009B01AC010A2E069457954795379527954E
:10173000BA95C9F7620F731F841F951FA01D0895E6
:04174000F894FFCF4B
:101744000000F80280000100000002000000040014
:101754000000B80B0000E8030000B80B0000000014
:1017640000000B026B0198015802C901A701BB01DB
:101774000D0A0053797374656D20496E697469614B
:101784006C697A65642E205374617274696E672083
:1017940068617264776172652073757065727669C9
:1017A40073696F6E2E2E2E003D3D3D3D3D3D3D3D0A
:1017B4003D3D3D3D3D3D3D3D3D3D3D3D3D3D3D3D55
:1017C4003D3D3D3D3D3D3D3D3D3D3D3D3D3D3D3D45
:1017D4003D3D3D3D3D3D3D3D3D0048415244574129
:1017E4005245204641554C542044455445435445A4
:1017F4004400477265656E0059656C6C6F770052E2
:101804006564004255524E542042554C42204F527A
:101814002053484F525445442054524941433A209E
:101824005068617365202564205B25735D004F500B
:10183400454E2054524941433A2050686173652013
:101844002564205B25735D005068617365206269BF
:10185400742000205245434F56455245442E000003
:00000001FF
