:100000000C9462000C948A000C948A000C948A0070
:100010000C948A000C948A000C948A000C948A0038
:100020000C948A000C948A000C948A000C948A0028
:100030000C948A000C948A000C948A000C948A0018
:100040000C94FD020C948A000C946D030C944703ED
:100050000C948A000C948A000C948A000C948A00F8
:100060000C948A000C948A000000000023002600F3
:10007000290000000000240027002A0000000000E2
:10008000250028002B0004040404040404040202D4
:100090000202020203030303030301020408102007
:1000A0004080010204081020010204081020000012
:1000B0000008000201000003040700000000000027
:1000C00000009F0311241FBECFEFD8E0DEBFCDBFDD
:1000D00011E0A0E0B1E0ECEEFBE002C005900D9273
:1000E000AA3AB107D9F722E0AAEAB1E001C01D920D
:1000F000A436B207E1F710E0C2E6D0E004C02197D1
:10010000FE010E94EE05C136D107C9F70E94E00347
:100110000C94F4050C940000833081F028F48130B5
:1001200099F08230A9F008958730A9F08830C9F09D
:100130008430B1F4809180008F7D03C08091800075
:100140008F7780938000089584B58F7784BD08955C
:1001500084B58F7DFBCF8091B0008F778093B00006
:1001600008958091B0008F7DF9CF1F93CF93DF93D7
:10017000282F30E0F901E255FF4F8491F901E6564E
:10018000FF4FD491F901EA57FF4FC491CC23A9F056
:10019000162F81110E948C00EC2FF0E0EE0FFF1F54
:1001A000E458FF4FA591B4918FB7F894EC911111D9
:1001B00008C0D095DE23DC938FBFDF91CF911F91D4
:1001C0000895DE2BF8CFCF93DF9390E0FC01E65645
:1001D000FF4F24918A579F4FFC0184918823D1F0CF
:1001E00090E0880F991FFC01EE58FF4FA591B49144
:1001F000FC01E458FF4FC591D49161110EC09FB727
:10020000F8948C91E22FE0958E238C932881E22341
:10021000E8839FBFDF91CF9108958FB7F894EC9159
:10022000E22BEC938FBFF6CF3FB7F8948091AF01EC
:100230009091B001A091B101B091B20126B5A89BF7
:1002400005C02F3F19F00196A11DB11D3FBFBA2F68
:10025000A92F982F8827BC01CD01620F711D811D28
:10026000911D42E0660F771F881F991F4A95D1F7AD
:1002700008958F929F92AF92BF92CF92DF92EF92AA
:10028000FF924B015C010E9414016B017C010E94F2
:1002900014016C197D098E099F09683E7340810520
:1002A0009105A8F321E0821A9108A108B10888EE0F
:1002B000C80E83E0D81EE11CF11C81149104A10436
:1002C000B10429F7FF90EF90DF90CF90BF90AF90EF
:1002D0009F908F9008952FB7F8946091AB01709123
:1002E000AC018091AD019091AE012FBF0895AF9206
:1002F000BF92CF92DF92EF92FF920F931F93CF9313
:10030000DF936C017B018B01040F151FEB015E0174
:10031000AE18BF08C017D10759F06991D601ED9109
:10032000FC910190F081E02DC6010995892B79F7A8
:10033000C501DF91CF911F910F91FF90EF90DF905A
:10034000CF90BF90AF900895FC01538D448D252F21
:1003500030E0842F90E0821B930B541710F0CF965F
:10036000089501970895FC01918D828D981761F091
:10037000A28DAE0FBF2FB11D5D968C91928D9F5FA8
:100380009F73928F90E008958FEF9FEF0895FC0187
:10039000918D828D981731F0828DE80FF11D858D3A
:1003A00090E008958FEF9FEF0895FC01918D228DCD
:1003B000892F90E0805C9F4F821B91098F73992752
:1003C000089583EB91E00E94D50121E0892B09F487
:1003D00020E0822F089580E090E0892B29F00E9490
:1003E000E10181110C9400000895FC01A48DA80F77
:1003F000B92FB11DA35ABF4F2C91848D90E0019667
:100400008F739927848FA689B7892C93A089B18986
:100410008C91837080648C93938D848D981306C027
:100420000288F389E02D80818F7D80830895EF928B
:10043000FF920F931F93CF93DF93EC0181E0888F9E
:100440009B8D8C8D98131AC0E889F989808185FF6E
:1004500015C09FB7F894EE89FF896083E889F98910
:1004600080818370806480839FBF81E090E0DF9112
:10047000CF911F910F91FF90EF900895F62E0B8D65
:1004800010E00F5F1F4F0F731127E02E8C8D8E1120
:100490000CC00FB607FCFACFE889F989808185FF87
:1004A000F5CFCE010E94F501F1CFEB8DEC0FFD2FC2
:1004B000F11DE35AFF4FF0829FB7F8940B8FEA8942
:1004C000FB8980818062CFCFCF93DF93EC01888D51
:1004D0008823B9F0AA89BB89E889F9898C9185FDBF
:1004E00003C0808186FD0DC00FB607FCF7CF8C914D
:1004F00085FFF2CF808185FFEDCFCE010E94F5010F
:10050000E9CFDF91CF910895CF93DF93D82FC8E043
:100510006D2F661F6627661F8BE00E94B500DD0FFA
:1005200061E08DE00E94B50060E08DE00E94B500C2
:10053000C15071F7DF91CF9108950F931F93CF931F
:10054000DF93082F162FD42FC22F60E08AE00E947D
:10055000B500802F0E948402812F0E9484028D2F7B
:100560000E9484028C2F0E94840261E08AE0DF9165
:10057000CF911F910F910C94B500FC0101900020C8
:10058000E9F73197AF01481B590BBC0183EB91E0B0
:100590000C947701CF93DF930E94BD02EC0182E1BE
:1005A00091E00E94BD028C0F9D1FDF91CF910895B5
:1005B0000F931F93CF93DF93CDB7DEB7A1970FB6FD
:1005C000F894DEBF0FBECDBF19A2805D88A3CE0117
:1005D00080960E94BD028C0182E191E00E94BD02E2
:1005E000800F911FA1960FB6F894DEBF0FBECDBF4E
:1005F000DF91CF911F910F9108951F920F920FB627
:100600000F9211242F933F938F939F93AF93BF9398
:100610008091AB019091AC01A091AD01B091AE0180
:100620003091AA0123E0230F2D3758F50196A11D23
:10063000B11D2093AA018093AB019093AC01A093CC
:10064000AD01B093AE018091AF019091B001A09146
:10065000B101B091B2010196A11DB11D8093AF010E
:100660009093B001A093B101B093B201BF91AF914B
:100670009F918F913F912F910F900FBE0F901F90E0
:10068000189526E8230F0296A11DB11DD2CF1F9207
:100690000F920FB60F9211242F933F934F935F93B6
:1006A0006F937F938F939F93AF93BF93EF93FF933A
:1006B00083EB91E00E94F501FF91EF91BF91AF9123
:1006C0009F918F917F916F915F914F913F912F916A
:1006D0000F900FBE0F901F9018951F920F920FB69C
:1006E0000F9211242F938F939F93EF93FF93E09199
:1006F000C301F091C4018081E091C901F091CA0168
:1007000082FD1BC090818091CC018F5F8F732091FF
:10071000CD01821741F0E091CC01F0E0ED54FE4FA5
:10072000958F8093CC01FF91EF919F918F912F91A5
:100730000F900FBE0F901F9018958081F4CFE3EBC0
:10074000F1E01382128288EE93E0A0E0B0E08483AF
:100750009583A683B78384E091E09183808385ECC1
:1007600090E09587848784EC90E09787868780EC7B
:1007700090E0918B808B81EC90E0938B828B82EC6C
:1007800090E0958B848B86EC90E0978B868B118E16
:10079000128E138E148EE0E5F2E011821282138223
:1007A000148215821682178210861186138614868B
:1007B000158616861786108A118A128A138A08955A
:1007C000789484B5826084BD84B5816084BD85B52C
:1007D000826085BD85B5816085BD80916E00816038
:1007E00080936E00109281008091810082608093DE
:1007F00081008091810081608093810080918000E0
:100800008160809380008091B10084608093B1000A
:100810008091B00081608093B00080917A00846004
:1008200080937A0080917A00826080937A00809130
:100830007A00816080937A0080917A00806880934A
:100840007A001092C100E091C301F091C40182E0EE
:100850008083E091BF01F091C0011082E091C1015D
:10086000F091C20180E180831092CB01E091C70139
:10087000F091C80186E08083E091C501F091C60146
:10088000808180618083E091C501F091C601808103
:1008900088608083E091C501F091C6018081806805
:1008A0008083E091C501F091C60180818F7D8083B6
:1008B00064EF71E080E090E00E94390161E088E03F
:1008C0000E94E30061E08DE00E94E30060E08CE0C4
:1008D0000E94E30061E088E00E94B50060E08DE0E6
:1008E0000E94B50061E08BE00E94E30061E08AE0D5
:1008F0000E94E30061E08DE00E94E30061E089E096
:100900000E94E30061E089E00E94B50060E08DE0B4
:100910000E94B50060E08AE00E94B50020E040E05F
:1009200060E080E00E949D0260E089E00E94B500E6
:100930000E946B0160935502709356028093570298
:100940009093580203E010E072E9872E70E0972E32
:10095000C0E0D0E00E946B01683B7B4081059105BF
:1009600008F420C10E946B01C0905502D09056023D
:10097000E0905702F09058029B01AC012C193D0900
:100980004E095F0969017A0138EBC3163BE0D306D3
:10099000E104F10480F0209159022F5F233008F028
:1009A00012C12093590260935502709356028093AE
:1009B000570290935802809159025EEFC52EDD24B4
:1009C000DA94ED2CFD2C8823A1F04DEFC42EDD240C
:1009D000DA94ED2CFD2C813061F06BEFC62EDD2416
:1009E000DA94ED2CFD2C823021F0CC24CA94DC2C3E
:1009F0007601260137014094509460947094809160
:100A0000510290915202A0915302B09154024816A3
:100A100059066A067B0671F0242D40E060E080E014
:100A20000E949D02409251025092520260925302E3
:100A30007092540260E088E00E94B500C8010197FE
:100A4000F1F761E088E00E94B50028E0A22EB12C09
:100A5000412C512C3201440C551C661C771CEAEBCE
:100A6000F0E08491E6EAF0E02490F4013490332041
:100A700081F081110E948C00E32DF0E0EE0FFF1F4A
:100A8000E859FF4FA591B4918C91282211F06894F8
:100A900040F861E08DE00E94B50060E08DE00E94CA
:100AA000B500F1E0AF1AB108B1F6A42C40942C2D9A
:100AB0002770C22E342D3770231709F487C0809118
:100AC000630281110DC081E0809363020E946B017B
:100AD00060935F0270936002809361029093620260
:100AE0000E946B0140905F02509060026090610232
:100AF000709062026419750986099709693E73400E
:100B00008105910508F44EC00E946B0140905B0284
:100B100050905C0260905D0270905E0264197509ED
:100B200086099709693B7B4081059105D8F185E1EC
:100B300091E00E94CA0287E491E00E94CA02F12C6F
:100B4000E12CD12CB12C96010E2C02C035952795A5
:100B50000A94E2F7C5010E2C02C0959587950A9478
:100B6000E2F781709FEFE91AF90A20FD32C0811186
:100B700007C085E691E00E94BD02C7010E94D8022D
:100B8000E3E0EE16F104F9F685E191E00E94CA0275
:100B90000E946B0160935B0270935C0280935D0224
:100BA00090935E0264E170E080E090E00E94390181
:100BB000209709F4CFCE0E94E101882309F4CACE20
:100BC0000E940000C7CE10925902EDCE109263022F
:100BD000E9CF8823A9F286E891E0CDCFEE0FFF1F81
:0C0BE0000590F491E02D0994F894FFCFEB
:100BEC000000000017027701A4016402D501B301D3
:100BFC00C7010D0A002D2D2D2D2D2D2D2D2D2D2D1B
:100C0C002D2D2D2D2D2D2D2D2D2D2D2D2D2D2D2D08
:100C1C002D2D2D2D2D2D2D2D2D2D2D2D2D2D2D2DF8
:100C2C002D2D2D2D2D2D00414C4552544120444548
:100C3C002048415244574152452044455445435461
:100C4C004144412100464F434F205155454D4144AD
:100C5C004F2064657465637461646F20656E2066F3
:100C6C006173653A2000545249414320454E20435C
:100C7C004F52544F2064657465637461646F2065D2
:0A0C8C006E20666173653A200000D7
:00000001FF
